{
  "_format": "hh-sol-artifact-1",
  "contractName": "MemeCultureToken",
  "sourceName": "contracts/Memes/CultureToken.sol",
  "abi": [
    {
      "inputs": [
        {
          "internalType": "string",
          "name": "name",
          "type": "string"
        },
        {
          "internalType": "string",
          "name": "symbol",
          "type": "string"
        },
        {
          "internalType": "address",
          "name": "_creator",
          "type": "address"
        },
        {
          "internalType": "uint256",
          "name": "_saleTarget",
          "type": "uint256"
        }
      ],
      "stateMutability": "nonpayable",
      "type": "constructor"
    },
    {
      "inputs": [
        {
          "internalType": "address",
          "name": "spender",
          "type": "address"
        },
        {
          "internalType": "uint256",
          "name": "allowance",
          "type": "uint256"
        },
        {
          "internalType": "uint256",
          "name": "needed",
          "type": "uint256"
        }
      ],
      "name": "ERC20InsufficientAllowance",
      "type": "error"
    },
    {
      "inputs": [
        {
          "internalType": "address",
          "name": "sender",
          "type": "address"
        },
        {
          "internalType": "uint256",
          "name": "balance",
          "type": "uint256"
        },
        {
          "internalType": "uint256",
          "name": "needed",
          "type": "uint256"
        }
      ],
      "name": "ERC20InsufficientBalance",
      "type": "error"
    },
    {
      "inputs": [
        {
          "internalType": "address",
          "name": "approver",
          "type": "address"
        }
      ],
      "name": "ERC20InvalidApprover",
      "type": "error"
    },
    {
      "inputs": [
        {
          "internalType": "address",
          "name": "receiver",
          "type": "address"
        }
      ],
      "name": "ERC20InvalidReceiver",
      "type": "error"
    },
    {
      "inputs": [
        {
          "internalType": "address",
          "name": "sender",
          "type": "address"
        }
      ],
      "name": "ERC20InvalidSender",
      "type": "error"
    },
    {
      "inputs": [
        {
          "internalType": "address",
          "name": "spender",
          "type": "address"
        }
      ],
      "name": "ERC20InvalidSpender",
      "type": "error"
    },
    {
      "anonymous": false,
      "inputs": [
        {
          "indexed": true,
          "internalType": "address",
          "name": "owner",
          "type": "address"
        },
        {
          "indexed": true,
          "internalType": "address",
          "name": "spender",
          "type": "address"
        },
        {
          "indexed": false,
          "internalType": "uint256",
          "name": "value",
          "type": "uint256"
        }
      ],
      "name": "Approval",
      "type": "event"
    },
    {
      "anonymous": false,
      "inputs": [
        {
          "indexed": true,
          "internalType": "address",
          "name": "from",
          "type": "address"
        },
        {
          "indexed": true,
          "internalType": "address",
          "name": "to",
          "type": "address"
        },
        {
          "indexed": false,
          "internalType": "uint256",
          "name": "value",
          "type": "uint256"
        }
      ],
      "name": "Transfer",
      "type": "event"
    },
    {
      "inputs": [],
      "name": "airdropLockedTokens",
      "outputs": [],
      "stateMutability": "nonpayable",
      "type": "function"
    },
    {
      "inputs": [
        {
          "internalType": "address",
          "name": "owner",
          "type": "address"
        },
        {
          "internalType": "address",
          "name": "spender",
          "type": "address"
        }
      ],
      "name": "allowance",
      "outputs": [
        {
          "internalType": "uint256",
          "name": "",
          "type": "uint256"
        }
      ],
      "stateMutability": "view",
      "type": "function"
    },
    {
      "inputs": [
        {
          "internalType": "address",
          "name": "spender",
          "type": "address"
        },
        {
          "internalType": "uint256",
          "name": "value",
          "type": "uint256"
        }
      ],
      "name": "approve",
      "outputs": [
        {
          "internalType": "bool",
          "name": "",
          "type": "bool"
        }
      ],
      "stateMutability": "nonpayable",
      "type": "function"
    },
    {
      "inputs": [
        {
          "internalType": "address",
          "name": "account",
          "type": "address"
        }
      ],
      "name": "balanceOf",
      "outputs": [
        {
          "internalType": "uint256",
          "name": "",
          "type": "uint256"
        }
      ],
      "stateMutability": "view",
      "type": "function"
    },
    {
      "inputs": [
        {
          "internalType": "uint256",
          "name": "amount",
          "type": "uint256"
        }
      ],
      "name": "buyTokens",
      "outputs": [],
      "stateMutability": "payable",
      "type": "function"
    },
    {
      "inputs": [],
      "name": "calculatePrice",
      "outputs": [
        {
          "internalType": "uint256",
          "name": "",
          "type": "uint256"
        }
      ],
      "stateMutability": "view",
      "type": "function"
    },
    {
      "inputs": [],
      "name": "circulatingSupply",
      "outputs": [
        {
          "internalType": "uint256",
          "name": "",
          "type": "uint256"
        }
      ],
      "stateMutability": "view",
      "type": "function"
    },
    {
      "inputs": [],
      "name": "creator",
      "outputs": [
        {
          "internalType": "address",
          "name": "",
          "type": "address"
        }
      ],
      "stateMutability": "view",
      "type": "function"
    },
    {
      "inputs": [],
      "name": "decimals",
      "outputs": [
        {
          "internalType": "uint8",
          "name": "",
          "type": "uint8"
        }
      ],
      "stateMutability": "view",
      "type": "function"
    },
    {
      "inputs": [],
      "name": "lockedSupply",
      "outputs": [
        {
          "internalType": "uint256",
          "name": "",
          "type": "uint256"
        }
      ],
      "stateMutability": "view",
      "type": "function"
    },
    {
      "inputs": [],
      "name": "name",
      "outputs": [
        {
          "internalType": "string",
          "name": "",
          "type": "string"
        }
      ],
      "stateMutability": "view",
      "type": "function"
    },
    {
      "inputs": [
        {
          "internalType": "uint256",
          "name": "",
          "type": "uint256"
        }
      ],
      "name": "participants",
      "outputs": [
        {
          "internalType": "address",
          "name": "",
          "type": "address"
        }
      ],
      "stateMutability": "view",
      "type": "function"
    },
    {
      "inputs": [
        {
          "internalType": "address",
          "name": "",
          "type": "address"
        }
      ],
      "name": "purchases",
      "outputs": [
        {
          "internalType": "uint256",
          "name": "",
          "type": "uint256"
        }
      ],
      "stateMutability": "view",
      "type": "function"
    },
    {
      "inputs": [],
      "name": "saleTarget",
      "outputs": [
        {
          "internalType": "uint256",
          "name": "",
          "type": "uint256"
        }
      ],
      "stateMutability": "view",
      "type": "function"
    },
    {
      "inputs": [],
      "name": "symbol",
      "outputs": [
        {
          "internalType": "string",
          "name": "",
          "type": "string"
        }
      ],
      "stateMutability": "view",
      "type": "function"
    },
    {
      "inputs": [],
      "name": "totalSold",
      "outputs": [
        {
          "internalType": "uint256",
          "name": "",
          "type": "uint256"
        }
      ],
      "stateMutability": "view",
      "type": "function"
    },
    {
      "inputs": [],
      "name": "totalSupply",
      "outputs": [
        {
          "internalType": "uint256",
          "name": "",
          "type": "uint256"
        }
      ],
      "stateMutability": "view",
      "type": "function"
    },
    {
      "inputs": [
        {
          "internalType": "address",
          "name": "to",
          "type": "address"
        },
        {
          "internalType": "uint256",
          "name": "value",
          "type": "uint256"
        }
      ],
      "name": "transfer",
      "outputs": [
        {
          "internalType": "bool",
          "name": "",
          "type": "bool"
        }
      ],
      "stateMutability": "nonpayable",
      "type": "function"
    },
    {
      "inputs": [
        {
          "internalType": "address",
          "name": "from",
          "type": "address"
        },
        {
          "internalType": "address",
          "name": "to",
          "type": "address"
        },
        {
          "internalType": "uint256",
          "name": "value",
          "type": "uint256"
        }
      ],
      "name": "transferFrom",
      "outputs": [
        {
          "internalType": "bool",
          "name": "",
          "type": "bool"
        }
      ],
      "stateMutability": "nonpayable",
      "type": "function"
    }
  ],
  "bytecode": "0x6080604052346104d65761105a80380380610019816104db565b9283398101906080818303126104d65780516001600160401b0381116104d65782610045918301610500565b602082015190926001600160401b0382116104d657610065918301610500565b604082015190916001600160a01b038216918290036104d6576060015183519091906001600160401b0381116103df57600354600181811c911680156104cc575b60208210146103bf57601f8111610467575b50602094601f8211600114610400579481929394956000926103f5575b50508160011b916000199060031b1c1916176003555b82516001600160401b0381116103df57600454600181811c911680156103d5575b60208210146103bf57601f811161035a575b506020601f82116001146102f357819293946000926102e8575b50508160011b916000199060031b1c1916176004555b81156102955760018060a01b031960055416176005556008556969e10de76676d08000006007556969e10de76676d0800000600655301561027f576002546969e10de76676d0800000810180911161026957600255600030815280602052604081206969e10de76676d080000081540190556040516969e10de76676d080000081528160008051602061103a83398151915260203093a360018060a01b03600554169060065482156102555760025481810180911161024157600255828252602082815260408084208054840190555191825260008051602061103a83398151915291a3604051610ace908161056c8239f35b634e487b7160e01b83526011600452602483fd5b63ec442f0560e01b82526004829052602482fd5b634e487b7160e01b600052601160045260246000fd5b63ec442f0560e01b600052600060045260246000fd5b60405162461bcd60e51b815260206004820152602560248201527f53616c6520746172676574206d7573742062652067726561746572207468616e604482015264207a65726f60d81b6064820152608490fd5b015190503880610138565b601f198216906004600052806000209160005b81811061034257509583600195969710610329575b505050811b0160045561014e565b015160001960f88460031b161c1916905538808061031b565b9192602060018192868b015181550194019201610306565b60046000527f8a35acfbc15ff81a39ae7d344fd709f28e8600b4aa8c65c6b64bfe7fe36bd19b601f830160051c810191602084106103b5575b601f0160051c01905b8181106103a9575061011e565b6000815560010161039c565b9091508190610393565b634e487b7160e01b600052602260045260246000fd5b90607f169061010c565b634e487b7160e01b600052604160045260246000fd5b0151905038806100d5565b601f198216956003600052806000209160005b88811061044f57508360019596979810610436575b505050811b016003556100eb565b015160001960f88460031b161c19169055388080610428565b91926020600181928685015181550194019201610413565b60036000527fc2575a0e9e593c00f959f8c92f12db2869c3395a3b0502d05e2516446f71f85b601f830160051c810191602084106104c2575b601f0160051c01905b8181106104b657506100b8565b600081556001016104a9565b90915081906104a0565b90607f16906100a6565b600080fd5b6040519190601f01601f191682016001600160401b038111838210176103df57604052565b81601f820112156104d6578051906001600160401b0382116103df5761052f601f8301601f19166020016104db565b92828452602083830101116104d65760005b82811061055657505060206000918301015290565b8060208092840101518282870101520161054156fe608080604052600436101561001357600080fd5b60003560e01c90816302d05d3f146108995750806306fdde03146107c3578063095ea7b31461073d5780630bb3d4dd1461066157806318160ddd1461064357806323b872dd14610556578063313ce5671461053a57806335c1d349146104f85780633610724e146103a75780634f3a49451461038957806370a082311461034f578063842a77d3146103155780639106d7ba146102f75780639358928b146102d957806395d89b41146101b8578063a9059cbb14610187578063ca5c7b9114610169578063d348b409146101465763dd62ed3e146100f057600080fd5b3461014157604036600319011261014157610109610906565b61011161091c565b6001600160a01b039182166000908152600160209081526040808320949093168252928352819020549051908152f35b600080fd5b34610141576000366003190112610141576020610161610999565b604051908152f35b34610141576000366003190112610141576020600654604051908152f35b34610141576040366003190112610141576101ad6101a3610906565b60243590336109d3565b602060405160018152f35b346101415760003660031901126101415760405160006004548060011c906001811680156102cf575b6020831081146102bb5782855290811561029f5750600114610248575b50819003601f01601f191681019067ffffffffffffffff8211818310176102325761022e829182604052826108bd565b0390f35b634e487b7160e01b600052604160045260246000fd5b905060046000527f8a35acfbc15ff81a39ae7d344fd709f28e8600b4aa8c65c6b64bfe7fe36bd19b6000905b828210610289575060209150820101826101fe565b6001816020925483858801015201910190610274565b90506020925060ff191682840152151560051b820101826101fe565b634e487b7160e01b84526022600452602484fd5b91607f16916101e1565b34610141576000366003190112610141576020600754604051908152f35b34610141576000366003190112610141576020600954604051908152f35b34610141576020366003190112610141576001600160a01b03610336610906565b16600052600a6020526020604060002054604051908152f35b34610141576020366003190112610141576001600160a01b03610370610906565b1660005260006020526020604060002054604051908152f35b34610141576000366003190112610141576020600854604051908152f35b6020366003190112610141576004356103c7816103c2610999565b610963565b34036104bf57306000526000602052806040600020541061047a576103ee8160095461098c565b60095533600052600a602052604060002061040a82825461098c565b905533600052600a602052806040600020541461042f575b61042d9033306109d3565b005b600b5490680100000000000000008210156102325761045782600161042d9401600b55610932565b81546001600160a01b0360039290921b91821b19163390911b1790559050610422565b60405162461bcd60e51b815260206004820152601b60248201527f4e6f7420656e6f75676820746f6b656e7320617661696c61626c6500000000006044820152606490fd5b60405162461bcd60e51b8152602060048201526011602482015270125b98dbdc9c9958dd081c185e5b595b9d607a1b6044820152606490fd5b3461014157602036600319011261014157600435600b5481101561014157610521602091610932565b905460405160039290921b1c6001600160a01b03168152f35b3461014157600036600319011261014157602060405160128152f35b346101415760603660031901126101415761056f610906565b61057761091c565b6001600160a01b03821660008181526001602081815260408084203385529091529091205491936044359392909181016105b7575b506101ad93506109d3565b8381106106265784156106105733156105fa576101ad946000526001602052604060002060018060a01b03331660005260205283604060002091039055846105ac565b634a1406b160e11b600052600060045260246000fd5b63e602df0560e01b600052600060045260246000fd5b8390637dc7a0d960e11b6000523360045260245260445260646000fd5b34610141576000366003190112610141576020600254604051908152f35b34610141576000366003190112610141576009548015806107025760005b600b548110156106fb5761069281610932565b60018060a01b0391549060031b1c169081600052600a602052826106be60406000205460065490610963565b906106e5576005546001936106df92879004916001600160a01b03166109d3565b0161067f565b634e487b7160e01b600052601260045260246000fd5b6000600655005b60405162461bcd60e51b8152602060048201526013602482015272139bc81d1bdad95b9cc81c1d5c98da185cd959606a1b6044820152606490fd5b3461014157604036600319011261014157610756610906565b602435903315610610576001600160a01b03169081156105fa57336000526001602052604060002082600052602052806040600020556040519081527f8c5be1e5ebec7d5bd14f71427d1e84f3dd0314c0f7b2291e5b200ac8c7c3b92560203392a3602060405160018152f35b346101415760003660031901126101415760405160006003548060011c9060018116801561088f575b6020831081146102bb5782855290811561029f57506001146108385750819003601f01601f191681019067ffffffffffffffff8211818310176102325761022e829182604052826108bd565b905060036000527fc2575a0e9e593c00f959f8c92f12db2869c3395a3b0502d05e2516446f71f85b6000905b828210610879575060209150820101826101fe565b6001816020925483858801015201910190610864565b91607f16916107ec565b34610141576000366003190112610141576005546001600160a01b03168152602090f35b91909160208152825180602083015260005b8181106108f0575060409293506000838284010152601f8019910116010190565b80602080928701015160408286010152016108cf565b600435906001600160a01b038216820361014157565b602435906001600160a01b038216820361014157565b600b5481101561094d57600b60005260206000200190600090565b634e487b7160e01b600052603260045260246000fd5b8181029291811591840414171561097657565b634e487b7160e01b600052601160045260246000fd5b9190820180921161097657565b600954655af3107a4000810290808204655af3107a4000149015171561097657662386f26fc100000180662386f26fc10000116109765790565b6001600160a01b0316908115610a82576001600160a01b0316918215610a6c576000828152806020526040812054828110610a525791604082827fddf252ad1be2c89b69c2b068fc378daa952ba7f163c4a11628f55a4df523b3ef958760209652828652038282205586815280845220818154019055604051908152a3565b916064928463391434e360e21b8452600452602452604452fd5b63ec442f0560e01b600052600060045260246000fd5b634b637e8f60e11b600052600060045260246000fdfea264697066735822122028c497db8ed7c2275e3b3e5e7eaff7e80c5b27ec438bbb8fdc65beb39b9fe22a64736f6c634300081b0033ddf252ad1be2c89b69c2b068fc378daa952ba7f163c4a11628f55a4df523b3ef",
  "linkReferences": {},
  "deployedLinkReferences": {}
}